:100000000C9454010C9471010C9471010C947101C5
:100010000C9471010C9496050C9471010C9471016F
:100020000C9471010C9471010C94D3060C94710121
:100030000C9471010C9471010C94BC060C94710128
:100040000C9471010C9471010C94C9070C9471010A
:100050000C9471010C9410070C9471010C947101B3
:100060000C9471010C947101050000000000050062
:10007000005F000005000700070005147F147F14CF
:1000800005242A7F2A12052313086462053649567F
:10009000205005080703000005001C224100050050
:1000A00041221C000514083E08140508083E0808F3
:1000B0000500B07000000508080808080500606029
:1000C0000000052010080402053E5149453E050088
:1000D000427F4000057249494946052141494D3357
:1000E000051814127F10052745454539053C4A4936
:1000F0004931054121110907053649494936054667
:100100004949291E05000014000005004034000084
:100110000508142241000514141414140541221476
:100120000800050201590906053E415D594E057C4E
:100130001211127C057F49494936053E4141412251
:10014000057F4141413E057F49494949057F0909EC
:100150000909053E41415173057F0808087F0500E4
:10016000417F4100052040413F01057F08142241A5
:10017000057F40404040057F020C027F057F040858
:10018000107F053E4141413E057F09090906053EB4
:100190004151215E057F0919294605264949493201
:1001A0000501017F0101053F4040403F051F204000
:1001B000201F053F4038403F0563140814630503C2
:1001C0000478040305615149454305007F4141001E
:1001D000050204081020050041417F0005040201CA
:1001E000020405404040404005070B000000052088
:1001F00054547840057F2844443805384444442802
:1002000005384444287F0538545454180500087EA6
:1002100009020518A4A49C78057F08040478050049
:10022000447D4000052040403D00057F10284400EB
:100230000500417F4000057C04780478057C0804B3
:10024000047805384444443805FC1824241805185B
:10025000242418FC057C080404080548545454243C
:100260000504043F4424053C4040207C051C2040FC
:10027000201C053C4030403C054428102844054CD7
:100280009090907C054464544C440500083641002D
:10029000050000770000050041360800050402044F
:1002A000080405007F417F0011241FBECFEFD8E076
:1002B000DEBFCDBF11E0A0E0B1E0E6EFFAE102C0A1
:1002C00005900D92AA34B107D9F725E0AAE4B1E070
:1002D00001C01D92AD38B207E1F70E94E6090C9407
:1002E000790D0C940000EF92FF920F931F93CF9320
:1002F000DF93C82F7B01142F0E94730588E70E94AB
:1003000088058C2F0E948805112371F0E701115098
:10031000012F10E00F5F1F4F0E0D1F1D89910E94CE
:100320008805C017D107D1F70E947F05DF91CF91D3
:100330001F910F91FF90EF900895CF93DF931F923D
:10034000CDB7DEB7898341E0BE016F5F7F4F80E0AC
:100350000E9473010F90DF91CF910895CF93DF93A7
:1003600081E20E949D0180E00E949D018FE70E9432
:100370009D0182E20E949D0180E00E949D0187E034
:100380000E949D01C0E0D0E0BE0162957295707F31
:100390007627607F762763577E4F40E180E40E9496
:1003A00073012196C034D10579F7DF91CF9108957B
:1003B000882314F0809384010895803410F480938E
:1003C00085010895CF93C62F0E94D8018C2F0E94DB
:1003D000DD01CF9108950E9466058EEA0E949D017D
:1003E00085ED0E949D0180EF0E949D0188EA0E9498
:1003F0009D018FE30E949D0183ED0E949D0180E09D
:100400000E949D018DE80E949D0184E10E949D0152
:1004100080E40E949D0180E20E949D0180E00E9494
:100420009D0181EA0E949D0188EC0E949D018AED58
:100430000E949D0182E10E949D0181E80E949D0130
:100440008FEF0E949D0189ED0E949D0181EF0E9426
:100450009D018BED0E949D0180E20E949D0184EA36
:100460000E949D0186EA0E949D018EE20E949D01EC
:100470008FEA0E949D0160E080E00E94E201E4E8D2
:10048000F1E086EA82831782168215821182108239
:10049000089590E007C08193E217F307E1F7985FB2
:1004A000903471F0292F26952695269540E8249FB3
:1004B00090011124F901E357FE4F235F3D4FEBCF2D
:1004C000089580E00E944902089580918601873A4C
:1004D00021F486EA8093860103C087EA809386012F
:1004E000809186010E949D0108956623E4F04034C6
:1004F000D0F42230C0F4E4E8F1E094838383658390
:10050000468350E041505109CA0199230CF40796E3
:100510009595879595958795959587958F5F809308
:100520008B0120938C0108952F923F924F925F92FE
:100530006F927F928F929F92AF92BF92CF92DF92F3
:10054000EF92FF920F931F93CF93DF9300D01F92F0
:10055000CDB7DEB7E4E8F1E03080218097812581D6
:10056000299F900111242F5F3F4F8052829FA0014D
:10057000839F500D11245A8349834A015FEF851AE6
:10058000950A0380F481E02DA981BA81EA0FFB1F4F
:10059000C490B22DB7706B2E992309F479C0D22C78
:1005A00010E088E090E05C01AB1AB1086D2D832D5E
:1005B0000E94E2019401210F311DD9011197CC2035
:1005C00009F448C0E0908701F090880160918B01A8
:1005D00070E000918C0140918501469546954695C5
:1005E000E0E84E9FA0011124E4E8F1E070802E0DB8
:1005F0003F1D5C2C570C43575E4FF901849190E0EE
:10060000062C02C0880F991F0A94E2F7482E112386
:1006100071F0F701EA0FFB1FE491F0E00A2C02C031
:10062000F595E7950A94E2F74E2AA60FB71F013019
:1006300029F4FA01E70DF11D8081482AFA01E70D3E
:10064000F11D40827394260F371F5710D6CFA4E8B0
:10065000B1E05C9280918C01811111C0E091850123
:10066000E695E695E695A4E8B1E08C91B0E8EB9FBD
:10067000F0011124E357FE4FE80FF11D1082E8E06E
:10068000DE0E1F5F80918B01181708F48FCF02C018
:10069000D22C10E0422D46954695469550E020918B
:1006A0008A01822D90E0820F911D01979C0112F426
:1006B000295F3F4F35952795359527953595279592
:1006C0004217530709F465C0FFE3FD1508F461C044
:1006D0006D2D832D0E94E20189819A81810F911DE8
:1006E000CC2009F440C0A4E8B1E011962C911197F8
:1006F00026952695269540E8249F9001112418966A
:100700006C9118970C9117964C91179750E013968F
:10071000ED91FC911497E80FF91F102F1C0D88E044
:1007200090E07C01E618F1085901A00EB11CC5014A
:1007300083579E4FDC01DC90849190E00E2C02C028
:10074000959587950A94E2F78D29613009F48D29F2
:10075000D501A357BE4F8C930F5FE40FF51F011314
:10076000E3CF1093840180918C01811112C0A4E821
:10077000B1E01196EC911197E695E695E6958C918E
:10078000B0E8EB9FF0011124E357FE4FE80FF11D95
:10079000108281E0830D622D8C0D0E94E2010F908A
:1007A0000F900F90DF91CF911F910F91FF90EF90DD
:1007B000DF90CF90BF90AF909F908F907F906F9081
:1007C0005F904F903F902F9008950F931F93CF937A
:1007D000DF93EC0188818823D9F0E4E8F1E090818F
:1007E000258130E0290F311D203831058CF4219608
:1007F0008F0109C0F8019081258130E0290F311D5A
:10080000203831052CF40E94940289918111F2CF95
:10081000DF91CF911F910F9108951F93CF93DF9395
:10082000CDB7DEB72C970FB6F894DEBF0FBECDBFA5
:10083000611571058105910521F480E30E94940200
:100840003BC161157105810520E8920709F434C1A7
:10085000FE0131962CE0DF011D922A95E9F720E395
:100860002B872A87298728872F832E832D832C8304
:100870002B832A83298399235CF49B01AC0188276D
:100880009927DC01821B930BA40BB50B11E003C06D
:10089000DC01CB0110E081153AEC93073AE9A3079C
:1008A0003BE3B3078CF021E301C0232F9A5CAA49F4
:1008B000BB4331E0320F81154AEC94074AE9A407A3
:1008C0004BE3B40794F72A83811551EE950755EF52
:1008D000A50755E0B5078CF021E301C0232F915EF9
:1008E000A54FB54031E0320F811541EE940745EF39
:1008F000A40745E0B40794F72B83803856E99507A1
:1009000058E9A507B1058CF021E301C0232F8058D9
:100910009649A849B10931E0320F803846E9940779
:1009200048E9A407B10594F72C83803452E4950775
:100930005FE0A507B1058CF021E301C0232F8054AF
:100940009244AF40B10931E0320F803442E4940761
:100950004FE0A407B10594F72D83803A56E8950738
:1009600051E0A507B1058CF021E301C0232F805A87
:100970009648A140B10931E0320F803A46E8940729
:1009800041E0A407B10594F72E83803157E2950723
:10099000A105B10584F021E301C0232F80519742C6
:1009A000A109B10931E0320F803147E29407A10576
:1009B000B1059CF72F83883E53E09507A105B1054B
:1009C00084F021E301C0232F885E9340A109B1097F
:1009D00031E0320F883E43E09407A105B1059CF752
:1009E000288784369105A105B1057CF021E301C07B
:1009F000232F84569109A109B10931E0320F8436C1
:100A00009105A105B105A4F729878A309105A105B3
:100A1000B10574F021E301C0232F0A97A109B109A0
:100A200031E0320F8A309105A105B105ACF72A8774
:100A3000181619061A061B060CF03CC0AC01BD01C5
:100A40004150510961097109D9F7805D8B8732C026
:100A5000982F81E0890FE1E0F0E0EC0FFD1FE80F37
:100A6000F11D20812033A1F3112331F0FE01E90FA4
:100A7000F11D8DE28183892F4AE0481B20E090E040
:100A8000E1E0F0E0EC0FFD1FE20FF11DDF01A80F28
:100A9000B91F3C9130832F5F421790F7E1E0F0E0FF
:100AA000EC0FFD1FE20FF11D1082CE0101960E9496
:100AB000E50302C090E0CDCF2C960FB6F894DEBFD0
:100AC0000FBECDBFDF91CF911F9108953C9A3D9A03
:100AD000449A459A1092B90088E48093B80084E063
:100AE0008093BC00089584EA8093BC00ECEBF0E0B6
:100AF00080818823ECF78091B900887F089585ED87
:100B00008093BC00ECEBF0E0808184FDFDCF089584
:100B10008093BB0084E88093BC00ECEBF0E0808124
:100B20008823ECF78091B900887F08951F920F9277
:100B30000FB60F9211244F925F926F927F928F9215
:100B40009F92AF92BF92CF92DF92EF92FF922F933C
:100B50003F934F935F936F937F938F939F93AF9345
:100B6000BF93CF93DF93EF93FF9380918201909196
:100B70008301009709F094C0609180017091810118
:100B8000EB012196D0938101C093800180917E0179
:100B900090917F0120917C0130917D016C01C21AFE
:100BA000D30AD0926901C092680190937D0180932D
:100BB0007C010D2C000CEE08FF0860EC77E289E068
:100BC00090E0A70196010E94EB0C30936D012093F9
:100BD0006C016091020170910301072E000C880BDB
:100BE000990B0E94BA0B4B015C0124E13EE54DE8F4
:100BF00054E40E946A0C2B013C01C701B6010E941B
:100C0000BA0B9B01AC01C301B2010E94100B0E9400
:100C1000820B709371016093700126E53EE049E418
:100C200050E4C501B4010E946A0C20E030E543ECB9
:100C300057E40E94100B6B017C01BE01DD0F880B95
:100C4000990B0E94BA0B9B01AC01C701B6010E942F
:100C50006A0C0E94820B70936F0160936E01209169
:100C60007A0130917B012617370784F4AB01770FA7
:100C7000660B770B80E090E00E945C0D80916E0126
:100C800090916F0190937B0180937A018091820112
:100C9000909183010196909383018093820105C016
:100CA000019790938301809382014C991BC080919E
:100CB00002019091030184369105A4F4019690936A
:100CC0000301809302012FEF81EE94E021508040D8
:100CD0009040E1F700C000006091020184E090E0E4
:100CE0000E944E0D4D991BC080910201909103010D
:100CF00082309105A4F00197909303018093020143
:100D00002FEF81EE94E0215080409040E1F700C049
:100D100000006091020184E090E00E944E0D4E9927
:100D200004C084E48093010103C082E58093010143
:100D30004F9903C080E580930101FF91EF91DF910E
:100D4000CF91BF91AF919F918F917F916F915F9163
:100D50004F913F912F91FF90EF90DF90CF90BF90F8
:100D6000AF909F908F907F906F905F904F900F907B
:100D70000FBE0F901F9018951F920F920FB60F92F3
:100D800011248F939F9380917E0190917F01019612
:100D900090937F0180937E019F918F910F900FBE62
:100DA0000F901F9018951F920F920FB60F9211245B
:100DB0002F933F938F939F93EF93FF9380918100A5
:100DC00086FF09C0809186009091870090937701FB
:100DD0008093760114C080918600909187002091C5
:100DE000760130917701821B930B82959295907FCB
:100DF0009827807F98279093750180937401E1E88C
:100E0000F0E0908180E489278083FF91EF919F91AA
:100E10008F913F912F910F900FBE0F901F901895BB
:100E20001F920F920FB60F9211242F933F934F935F
:100E30005F936F937F938F939F93AF93BF93EF9342
:100E4000FF9380916A0190916B018230910509F4C2
:100E50003FC01CF4019749F07AC08330910509F432
:100E60004BC0049709F45CC072C080E480937C009E
:100E70008091700190917101853191053CF0209134
:100E80007201309173012D3231407CF444970CF0A3
:100E90005EC080917201909173018C3221E09207C3
:100EA00024F08D3291400CF452C0209178003091A2
:100EB00079003093790120937801C90199230CF4CA
:100EC000039695958795959587958093B4003FC037
:100ED00081E480937C00609178007091790080E0DB
:100EE00090E00E94B80B6093580170935901809371
:100EF0005A0190935B012BC082E480937C00609147
:100F000078007091790080E090E00E94B80B6093C7
:100F1000640170936501809366019093670117C027
:100F200083E480937C00609178007091790080E088
:100F300090E00E94B80B6093500170935101809330
:100F400052019093530110926B0110926A018091AB
:100F50006A0190916B01019690936B0180936A01F5
:100F6000FF91EF91BF91AF919F918F917F916F9181
:100F70005F914F913F912F910F900FBE0F901F9057
:100F80001895E0ECF0E0908195FFFDCF8093C600CE
:100F900008951F920F920FB60F9211242F933F9333
:100FA0004F935F936F937F938F939F93AF93BF9371
:100FB000CF93EF93FF93C091C600C436E9F46091DC
:100FC0005C0170915D0180915E0190915F010E94D2
:100FD000890B862F90E00E94C10760915C0170919F
:100FE0005D0180915E0190915F010E94890B8AE012
:100FF00090E00E944E0D15C060915C0170915D0102
:1010000080915E0190915F010E94890B8AE090E0DF
:101010000E944E0DCC3629F46FEF8AE090E00E94DA
:101020004E0DFF91EF91CF91BF91AF919F918F9115
:101030007F916F915F914F913F912F910F900FBED4
:101040000F901F9018952F923F924F925F926F9240
:101050007F929F92AF92BF92CF92DF92EF92FF92D8
:101060000F931F93CF93DF93CDB7DEB728970FB6BB
:10107000F894DEBF0FBECDBF1C01962E5A0120E0B2
:1010800030E040EA50E4609150017091510180914C
:101090005201909153010E946A0C20E030EC4FE71E
:1010A00054E40E94100B9B01AC0160E070E48CE9F9
:1010B00095E40E94100B20E030E04AE754E40E94DF
:1010C0009E0A6B017C0160934C0170934D018093EB
:1010D0004E0190934F0120E030E040EA50E46091EF
:1010E00058017091590180915A0190915B010E94C1
:1010F0006A0C20E030EC4FE754E40E94100B20E033
:1011000030E040EA51E40E946A0C69837A838B8361
:101110009C8320E030E040EA50E4609164017091EB
:10112000650180916601909167010E946A0C20E040
:1011300030EC4FE754E40E94100B2B013C0120E0FF
:1011400030E04AE754E40E946A0C6D837E838F830B
:101150009887A301920160E070E080EA90E40E9429
:101160009E0A9B01AC016D817E818F8198850E94D2
:10117000100B609360017093610180936201909302
:10118000630120E030E048EC52E40E946A0C20E069
:1011900030E44CE156E40E949E0A20E030E04AE14F
:1011A00052E40E94100B2B013C0120E030E046E9A4
:1011B00053E4C701B6010E940B0B88232CF00F2EBD
:1011C000F4E4FF2EF02D04C00F2EFCE4FF2EF02DD2
:1011D0000E94610260E08EE10E94E20184E091E001
:1011E0000E94E5036AE080E00E94E20180E191E074
:1011F0000E94E50364E180E00E94E20186E291E062
:101200000E94E503B101330C880B990B0E940D0479
:1012100064E180E50E94E20181E391E00E94E50340
:10122000892D0E94940263E280E00E94E201B501F0
:10123000BB0C880B990B0E940D0485E391E00E9482
:10124000E50363E28DE20E94E20189E391E00E94FE
:10125000E5038F2D0E94940263E280E50E94E20183
:10126000B801110F880B990B0E940D048DE391E0DA
:101270000E94E50362E380E50E94E201C301B2013E
:101280000E94820B0E940D0480E491E00E94E5031D
:1012900062E382E30E94E20169817A818B819C8111
:1012A0000E94820B0E940D0483E491E00E94E503FA
:1012B00062E380E00E94E2016C8D7D8D072E000CC0
:1012C000880B990B0E940D0486E491E00E94E503CF
:1012D0000E94AE0128960FB6F894DEBF0FBECDBFB8
:1012E000DF91CF911F910F91FF90EF90DF90CF9002
:1012F000BF90AF909F907F906F905F904F903F9086
:101300002F90089540914A0150914B0128EE33E00F
:10131000241B350B12161306B4F420E030E068EEFF
:1013200073E02B9A45E34A95F1F700002B982F5F65
:101330003F4F40914A0150914B01FB01E41BF50BDB
:101340002E173F0774F3181619066CF420E030E0EE
:101350002B9AF5E3FA95F1F700002B982F5F3F4F9A
:1013600082179307A9F790934B0180934A012FEFBF
:1013700049E688E1215040408040E1F700C000008C
:101380000895CF92DF92EF92FF926A017B0182353E
:1013900021F485B1806C85B903C085B18F7385B99F
:1013A00020E030E046E953E4C701B6010E940B0B90
:1013B000882324F485B1866085B903C085B1897F0F
:1013C00085B9FF90EF90DF90CF90089580E090E096
:1013D0000E94480D70936F0160936E0184E090E06D
:1013E0000E94400D90E090930301809302018EECE7
:1013F00084B980E387B988E08AB981E185B99FEF34
:1014000098B984E38BB924E02093680084EF80933B
:101410006D0082E084BD85BD80936E0087EC87BD42
:1014200083E28093B0002093B10080E88093B40001
:1014300084E48093810080E280936F008FEE80933C
:101440007A0010927B0010927E001092C50090935B
:10145000C40088E98093C1008EE08093C200789434
:101460000E94EB0120E048E065E088E690E00E9401
:1014700075020E9465020E946102CAE3D0E00F2E4D
:10148000F4EB6F2E712CF02D0F2EF9E15F2EF02D65
:101490008091740190917501BE010E94D70C862F36
:1014A000972F6093720170937301209170013091B6
:1014B0007101253131052CF08C32914014F4F30187
:1014C00050828090540190905501A0905601B090A8
:1014D0005701C0905C01D0905D01E0905E01F090FA
:1014E0005F0100916E0110916F0140916C0150916C
:1014F0006D01809173018F93809172018F93209180
:1015000000016091010180910201909103010E940C
:10151000230880917001909171010E94820940918D
:101520004C0150914D0160914E0170914F0180919D
:1015300001010E94C1090F900F90AACF5058BB27FC
:10154000AA270E94B60A0C94300C0E94220C38F094
:101550000E94290C20F039F49F3F19F426F40C94D2
:101560001F0C0EF4E095E7FB0C94190CE92F0E9478
:10157000410C58F3BA17620773078407950720F0E8
:1015800079F4A6F50C94630C0EF4E0950B2EBA2FAB
:10159000A02D0B01B90190010C01CA01A001112479
:1015A000FF27591B99F0593F50F4503E68F11A1625
:1015B000F040A22F232F342F4427585FF3CF4695B6
:1015C00037952795A795F0405395C9F77EF41F16D8
:1015D000BA0B620B730B840BBAF09150A1F0FF0FA2
:1015E000BB1F661F771F881FC2F70EC0BA0F621F8E
:1015F000731F841F48F4879577956795B795F7957E
:101600009E3F08F0B0CF9395880F08F09927EE0F12
:101610009795879508950E94F50B08F481E0089549
:101620000E94240B0C94300C0E94290C58F00E944C
:10163000220C40F029F45F3F29F00C94190C511151
:101640000C94640C0C941F0C0E94410C68F39923B9
:10165000B1F3552391F3951B550BBB27AA276217AE
:101660007307840738F09F5F5F4F220F331F441FBB
:10167000AA1FA9F335D00E2E3AF0E0E832D09150EF
:101680005040E695001CCAF72BD0FE2F29D0660FDC
:10169000771F881FBB1F261737074807AB07B0E81F
:1016A00009F0BB0B802DBF01FF2793585F4F3AF025
:1016B0009E3F510578F00C94190C0C94640C5F3F1C
:1016C000E4F3983ED4F3869577956795B795F795AB
:1016D0009F5FC9F7880F911D9695879597F9089593
:1016E000E1E0660F771F881FBB1F6217730784072F
:1016F000BA0720F0621B730B840BBA0BEE1F88F73E
:10170000E09508950E94890B6894B1110C94640CC3
:1017100008950E94490C88F09F5798F0B92F992797
:10172000B751B0F0E1F0660F771F881F991F1AF0CC
:10173000BA95C9F714C0B13091F00E94630CB1E0C2
:1017400008950C94630C672F782F8827B85F39F0C1
:10175000B93FCCF3869577956795B395D9F73EF465
:1017600090958095709561957F4F8F4F9F4F08950D
:10177000E89409C097FB3EF490958095709561952B
:101780007F4F8F4F9F4F9923A9F0F92F96E9BB27E1
:101790009395F695879577956795B795F111F8CF5D
:1017A000FAF4BB0F11F460FF1BC06F5F7F4F8F4FC8
:1017B0009F4F16C0882311F096E911C0772321F0BE
:1017C0009EE8872F762F05C0662371F096E8862F56
:1017D00070E060E02AF09A95660F771F881FDAF7AD
:1017E000880F9695879597F90895990F0008550FDA
:1017F000AA0BE0E8FEEF16161706E807F907C0F097
:1018000012161306E407F50798F0621B730B840B9E
:10181000950B39F40A2661F0232B242B252B21F478
:1018200008950A2609F4A140A6958FEF811D811D18
:10183000089597F99F6780E870E060E008959FEF52
:1018400080EC089500240A94161617061806090657
:10185000089500240A941216130614060506089526
:10186000092E0394000C11F4882352F0BB0F40F4AE
:10187000BF2B11F460FF04C06F5F7F4F8F4F9F4FEE
:10188000089557FD9058440F551F59F05F3F71F070
:101890004795880F97FB991F61F09F3F79F08795D7
:1018A0000895121613061406551FF2CF4695F1DF60
:1018B00008C0161617061806991FF1CF86957105F0
:1018C000610508940895E894BB2766277727CB0124
:1018D00097F908950E947D0C0C94300C0E94220C04
:1018E00038F00E94290C20F0952311F00C94190C6B
:1018F0000C941F0C11240C94640C0E94410C70F386
:10190000959FC1F3950F50E0551F629FF001729FA4
:10191000BB27F00DB11D639FAA27F00DB11DAA1FB3
:10192000649F6627B00DA11D661F829F2227B00D00
:10193000A11D621F739FB00DA11D621F839FA00D8B
:10194000611D221F749F3327A00D611D231F849FDB
:10195000600D211D822F762F6A2F11249F57504032
:101960009AF0F1F088234AF0EE0FFF1FBB1F661FAD
:10197000771F881F91505040A9F79E3F510580F076
:101980000C94190C0C94640C5F3FE4F3983ED4F370
:10199000869577956795B795F795E7959F5FC1F71A
:1019A000FE2B880F911D9695879597F9089597FBC3
:1019B000072E16F4009407D077FD09D00E940A0D77
:1019C00007FC05D03EF4909581959F4F0895709542
:1019D00061957F4F0895052E97FB1EF400940E9499
:1019E000020D57FD07D00E941E0D07FC03D04EF4D8
:1019F0000C94020D50954095309521953F4F4F4FD7
:101A00005F4F089590958095709561957F4F8F4FAA
:101A10009F4F0895AA1BBB1B51E107C0AA1FBB1F04
:101A2000A617B70710F0A61BB70B881F991F5A956A
:101A3000A9F780959095BC01CD010895A1E21A2ED9
:101A4000AA1BBB1BFD010DC0AA1FBB1FEE1FFF1F62
:101A5000A217B307E407F50720F0A21BB30BE40BB2
:101A6000F50B661F771F881F991F1A9469F76095F9
:101A70007095809590959B01AC01BD01CF010895B3
:101A8000F999FECF92BD81BDF89A992780B5089546
:101A9000A6E1B0E044E050E00C946B0D262FF999DC
:101AA000FECF1FBA92BD81BD20BD0FB6F894FA9A41
:101AB000F99A0FBE01960895242F0E944F0D252FED
:101AC0000E944F0D0C94640D0E944E0D272F0C9414
:101AD0004F0DDC01CB01FC01F999FECF06C0F2BD30
:101AE000E1BDF89A319600B40D9241505040B8F7DC
:061AF0000895F894FFCFF9
:101AF60044443200436F6D702E20426F72646F0053
:101B06002D2D2D2D2D2D2D2D2D2D2D2D2D2D2D2DFF
:101B16002D2D2D2D2D004469616D28636D293A20E8
:101B2600004D3A200072706D00663A20006B6D0021
:0A1B3600204300202500636D00002D
:00000001FF
